{
  "contractName": "AddressStringUtilTest",
  "abi": [
    {
      "constant": true,
      "inputs": [
        {
          "name": "addr",
          "type": "address"
        },
        {
          "name": "len",
          "type": "uint256"
        }
      ],
      "name": "toAsciiString",
      "outputs": [
        {
          "name": "",
          "type": "string"
        }
      ],
      "payable": false,
      "stateMutability": "pure",
      "type": "function"
    }
  ],
  "bytecode": "0x608060405234801561001057600080fd5b50d3801561001d57600080fd5b50d2801561002a57600080fd5b506103cd8061003a6000396000f3fe608060405234801561001057600080fd5b50d3801561001d57600080fd5b50d2801561002a57600080fd5b5060043610610062576000357c0100000000000000000000000000000000000000000000000000000000900480635768786e14610067575b600080fd5b6100b36004803603604081101561007d57600080fd5b81019080803573ffffffffffffffffffffffffffffffffffffffff1690602001909291908035906020019092919050505061012e565b6040518080602001828103825283818151815260200191508051906020019080838360005b838110156100f35780820151818401526020810190506100d8565b50505050905090810190601f1680156101205780820380516001836020036101000a031916815260200191505b509250505060405180910390f35b606061013a8383610142565b905092915050565b606060006002838161015057fe5b0614801561015e5750600082115b801561016b575060288211155b6101dd576040517f08c379a000000000000000000000000000000000000000000000000000000000815260040180806020018281038252601e8152602001807f41646472657373537472696e675574696c3a20494e56414c49445f4c454e000081525060200191505060405180910390fd5b6060826040519080825280601f01601f1916602001820160405280156102125781602001600182028038833980820191505090505b50905060008473ffffffffffffffffffffffffffffffffffffffff16905060008090505b6002858161024057fe5b048110156103245760008160130360080283908060020a82049150509050600060048260ff16908060020a82049150509050600060048260ff169060020a028303905061028c82610330565b86856002028151811061029b57fe5b60200101907effffffffffffffffffffffffffffffffffffffffffffffffffffffffffffff1916908160001a9053506102d381610330565b8660018660020201815181106102e557fe5b60200101907effffffffffffffffffffffffffffffffffffffffffffffffffffffffffffff1916908160001a9053505050508080600101915050610236565b50819250505092915050565b6000600a8260ff16101561036b57603082017f0100000000000000000000000000000000000000000000000000000000000000029050610394565b603782017f01000000000000000000000000000000000000000000000000000000000000000290505b91905056fea26474726f6e5820d11107f32e23ffe27990a2486d8b6cb3ac24a4142e8301efda803d59c5370e6864736f6c634300050a0031",
  "source": "// SPDX-License-Identifier: GPL-3.0-or-later\n\npragma solidity >=0.5.0;\n\nimport '../utils/AddressStringUtil.sol';\n\ncontract AddressStringUtilTest {\n    function toAsciiString(address addr, uint256 len) external pure returns (string memory) {\n        return AddressStringUtil.toAsciiString(addr, len);\n    }\n}\n",
  "sourcePath": "/Users/eugenyaroslavov/Sources/pancake-farm/contracts/lib/test/AddressStringUtilTest.sol",
  "compiler": {
    "name": "solc",
    "version": "0.5.10+commit.a1d534ef.Emscripten.clang"
  },
  "schemaVersion": "2.0.1",
  "updatedAt": "2020-10-20T16:59:21.523Z"
}