{
  "contractName": "FixedPointTest",
  "abi": [
    {
      "constant": true,
      "inputs": [
        {
          "name": "x",
          "type": "uint112"
        }
      ],
      "name": "encode",
      "outputs": [
        {
          "components": [
            {
              "name": "_x",
              "type": "uint224"
            }
          ],
          "name": "",
          "type": "tuple"
        }
      ],
      "payable": false,
      "stateMutability": "pure",
      "type": "function"
    },
    {
      "constant": true,
      "inputs": [
        {
          "name": "x",
          "type": "uint144"
        }
      ],
      "name": "encode144",
      "outputs": [
        {
          "components": [
            {
              "name": "_x",
              "type": "uint256"
            }
          ],
          "name": "",
          "type": "tuple"
        }
      ],
      "payable": false,
      "stateMutability": "pure",
      "type": "function"
    },
    {
      "constant": true,
      "inputs": [
        {
          "components": [
            {
              "name": "_x",
              "type": "uint224"
            }
          ],
          "name": "self",
          "type": "tuple"
        },
        {
          "name": "y",
          "type": "uint112"
        }
      ],
      "name": "div",
      "outputs": [
        {
          "components": [
            {
              "name": "_x",
              "type": "uint224"
            }
          ],
          "name": "",
          "type": "tuple"
        }
      ],
      "payable": false,
      "stateMutability": "pure",
      "type": "function"
    },
    {
      "constant": true,
      "inputs": [
        {
          "name": "numerator",
          "type": "uint112"
        },
        {
          "name": "denominator",
          "type": "uint112"
        }
      ],
      "name": "fraction",
      "outputs": [
        {
          "components": [
            {
              "name": "_x",
              "type": "uint224"
            }
          ],
          "name": "",
          "type": "tuple"
        }
      ],
      "payable": false,
      "stateMutability": "pure",
      "type": "function"
    },
    {
      "constant": true,
      "inputs": [
        {
          "components": [
            {
              "name": "_x",
              "type": "uint224"
            }
          ],
          "name": "self",
          "type": "tuple"
        },
        {
          "name": "y",
          "type": "uint256"
        }
      ],
      "name": "mul",
      "outputs": [
        {
          "components": [
            {
              "name": "_x",
              "type": "uint256"
            }
          ],
          "name": "",
          "type": "tuple"
        }
      ],
      "payable": false,
      "stateMutability": "pure",
      "type": "function"
    },
    {
      "constant": true,
      "inputs": [
        {
          "components": [
            {
              "name": "_x",
              "type": "uint224"
            }
          ],
          "name": "self",
          "type": "tuple"
        }
      ],
      "name": "decode",
      "outputs": [
        {
          "name": "",
          "type": "uint112"
        }
      ],
      "payable": false,
      "stateMutability": "pure",
      "type": "function"
    },
    {
      "constant": true,
      "inputs": [
        {
          "components": [
            {
              "name": "_x",
              "type": "uint256"
            }
          ],
          "name": "self",
          "type": "tuple"
        }
      ],
      "name": "decode144",
      "outputs": [
        {
          "name": "",
          "type": "uint144"
        }
      ],
      "payable": false,
      "stateMutability": "pure",
      "type": "function"
    },
    {
      "constant": true,
      "inputs": [
        {
          "components": [
            {
              "name": "_x",
              "type": "uint224"
            }
          ],
          "name": "self",
          "type": "tuple"
        }
      ],
      "name": "reciprocal",
      "outputs": [
        {
          "components": [
            {
              "name": "_x",
              "type": "uint224"
            }
          ],
          "name": "",
          "type": "tuple"
        }
      ],
      "payable": false,
      "stateMutability": "pure",
      "type": "function"
    },
    {
      "constant": true,
      "inputs": [
        {
          "components": [
            {
              "name": "_x",
              "type": "uint224"
            }
          ],
          "name": "self",
          "type": "tuple"
        }
      ],
      "name": "sqrt",
      "outputs": [
        {
          "components": [
            {
              "name": "_x",
              "type": "uint224"
            }
          ],
          "name": "",
          "type": "tuple"
        }
      ],
      "payable": false,
      "stateMutability": "pure",
      "type": "function"
    }
  ],
  "bytecode": "0x608060405234801561001057600080fd5b50d3801561001d57600080fd5b50d2801561002a57600080fd5b50610f678061003a6000396000f3fe608060405234801561001057600080fd5b50d3801561001d57600080fd5b50d2801561002a57600080fd5b50600436106100ca576000357c0100000000000000000000000000000000000000000000000000000000900480634fd04a401161009d5780634fd04a401461018f5780635f9f4c3b146101bf578063af35b769146101ef578063c814e3141461021f578063ca2d02991461024f576100ca565b80632da10c08146100cf57806331f92b13146100ff5780633f1626c81461012f5780634de4cf921461015f575b600080fd5b6100e960048036036100e49190810190610a7a565b61027f565b6040516100f69190610db5565b60405180910390f35b61011960048036036101149190810190610a51565b6102a9565b6040516101269190610db5565b60405180910390f35b61014960048036036101449190810190610a51565b6102d1565b6040516101569190610db5565b60405180910390f35b61017960048036036101749190810190610b96565b6102f9565b6040516101869190610db5565b60405180910390f35b6101a960048036036101a49190810190610a51565b610313565b6040516101b69190610deb565b60405180910390f35b6101d960048036036101d49190810190610b1b565b610335565b6040516101e69190610e06565b60405180910390f35b61020960048036036102049190810190610ab6565b610357565b6040516102169190610dd0565b60405180910390f35b61023960048036036102349190810190610bd2565b610381565b6040516102469190610dd0565b60405180910390f35b61026960048036036102649190810190610b6d565b610399565b6040516102769190610db5565b60405180910390f35b610287610913565b6102a18380360361029b9190810190610af2565b836103b1565b905092915050565b6102b1610913565b6102ca828036036102c59190810190610af2565b61049b565b9050919050565b6102d9610913565b6102f2828036036102ed9190810190610af2565b61057d565b9050919050565b610301610913565b61030b83836105ea565b905092915050565b600061032e828036036103299190810190610af2565b6106e9565b9050919050565b60006103508280360361034b9190810190610b44565b610724565b9050919050565b61035f610944565b610379838036036103739190810190610af2565b83610741565b905092915050565b610389610944565b61039282610801565b9050919050565b6103a1610913565b6103aa8261083d565b9050919050565b6103b9610913565b6000826dffffffffffffffffffffffffffff16141561040d576040517f08c379a000000000000000000000000000000000000000000000000000000000815260040161040490610d95565b60405180910390fd5b6040518060200160405280836dffffffffffffffffffffffffffff167bffffffffffffffffffffffffffffffffffffffffffffffffffffffff1685600001517bffffffffffffffffffffffffffffffffffffffffffffffffffffffff168161047157fe5b047bffffffffffffffffffffffffffffffffffffffffffffffffffffffff16815250905092915050565b6104a3610913565b600082600001517bffffffffffffffffffffffffffffffffffffffffffffffffffffffff161415610509576040517f08c379a000000000000000000000000000000000000000000000000000000000815260040161050090610d55565b60405180910390fd5b604051806020016040528083600001517bffffffffffffffffffffffffffffffffffffffffffffffffffffffff16607060ff16607060ff1660019060020a029060020a028161055457fe5b047bffffffffffffffffffffffffffffffffffffffffffffffffffffffff168152509050919050565b610585610913565b604051806020016040528060386105bd85600001517bffffffffffffffffffffffffffffffffffffffffffffffffffffffff166108b1565b9060020a027bffffffffffffffffffffffffffffffffffffffffffffffffffffffff168152509050919050565b6105f2610913565b6000826dffffffffffffffffffffffffffff1611610645576040517f08c379a000000000000000000000000000000000000000000000000000000000815260040161063c90610d95565b60405180910390fd5b6040518060200160405280836dffffffffffffffffffffffffffff16607060ff16866dffffffffffffffffffffffffffff167bffffffffffffffffffffffffffffffffffffffffffffffffffffffff169060020a027bffffffffffffffffffffffffffffffffffffffffffffffffffffffff16816106bf57fe5b047bffffffffffffffffffffffffffffffffffffffffffffffffffffffff16815250905092915050565b6000607060ff1682600001517bffffffffffffffffffffffffffffffffffffffffffffffffffffffff16908060020a82049150509050919050565b6000607060ff168260000151908060020a82049150509050919050565b610749610944565b6000808314806107aa575083600001517bffffffffffffffffffffffffffffffffffffffffffffffffffffffff16838486600001517bffffffffffffffffffffffffffffffffffffffffffffffffffffffff1602925082816107a757fe5b04145b6107e9576040517f08c379a00000000000000000000000000000000000000000000000000000000081526004016107e090610d75565b60405180910390fd5b60405180602001604052808281525091505092915050565b610809610944565b6040518060200160405280607060ff168471ffffffffffffffffffffffffffffffffffff169060020a028152509050919050565b610845610913565b6040518060200160405280607060ff16846dffffffffffffffffffffffffffff167bffffffffffffffffffffffffffffffffffffffffffffffffffffffff169060020a027bffffffffffffffffffffffffffffffffffffffffffffffffffffffff168152509050919050565b600060038211156109005781905060006001600284816108cd57fe5b040190505b818110156108fa578091506002818285816108e957fe5b0401816108f257fe5b0490506108d2565b5061090e565b6000821461090d57600190505b5b919050565b604051806020016040528060007bffffffffffffffffffffffffffffffffffffffffffffffffffffffff1681525090565b6040518060200160405280600081525090565b60006020828403121561096957600080fd5b81905092915050565b60006020828403121561098457600080fd5b61098e6020610e21565b9050600061099e84828501610a27565b60008301525092915050565b6000602082840312156109bc57600080fd5b81905092915050565b6000602082840312156109d757600080fd5b6109e16020610e21565b905060006109f184828501610a3c565b60008301525092915050565b600081359050610a0c81610ec9565b92915050565b600081359050610a2181610ee0565b92915050565b600081359050610a3681610ef7565b92915050565b600081359050610a4b81610f0e565b92915050565b600060208284031215610a6357600080fd5b6000610a7184828501610957565b91505092915050565b60008060408385031215610a8d57600080fd5b6000610a9b85828601610957565b9250506020610aac858286016109fd565b9150509250929050565b60008060408385031215610ac957600080fd5b6000610ad785828601610957565b9250506020610ae885828601610a3c565b9150509250929050565b600060208284031215610b0457600080fd5b6000610b1284828501610972565b91505092915050565b600060208284031215610b2d57600080fd5b6000610b3b848285016109aa565b91505092915050565b600060208284031215610b5657600080fd5b6000610b64848285016109c5565b91505092915050565b600060208284031215610b7f57600080fd5b6000610b8d848285016109fd565b91505092915050565b60008060408385031215610ba957600080fd5b6000610bb7858286016109fd565b9250506020610bc8858286016109fd565b9150509250929050565b600060208284031215610be457600080fd5b6000610bf284828501610a12565b91505092915050565b6000610c08601b83610e4e565b91507f4669786564506f696e743a205a45524f5f5245434950524f43414c00000000006000830152602082019050919050565b6000610c48602383610e4e565b91507f4669786564506f696e743a204d554c5449504c49434154494f4e5f4f5645524660008301527f4c4f5700000000000000000000000000000000000000000000000000000000006020830152604082019050919050565b6000610cae601783610e4e565b91507f4669786564506f696e743a204449565f42595f5a45524f0000000000000000006000830152602082019050919050565b602082016000820151610cf76000850182610d37565b50505050565b602082016000820151610d136000850182610d46565b50505050565b610d2281610e5f565b82525050565b610d3181610e79565b82525050565b610d4081610e97565b82525050565b610d4f81610ebf565b82525050565b60006020820190508181036000830152610d6e81610bfb565b9050919050565b60006020820190508181036000830152610d8e81610c3b565b9050919050565b60006020820190508181036000830152610dae81610ca1565b9050919050565b6000602082019050610dca6000830184610ce1565b92915050565b6000602082019050610de56000830184610cfd565b92915050565b6000602082019050610e006000830184610d19565b92915050565b6000602082019050610e1b6000830184610d28565b92915050565b6000604051905081810181811067ffffffffffffffff82111715610e4457600080fd5b8060405250919050565b600082825260208201905092915050565b60006dffffffffffffffffffffffffffff82169050919050565b600071ffffffffffffffffffffffffffffffffffff82169050919050565b60007bffffffffffffffffffffffffffffffffffffffffffffffffffffffff82169050919050565b6000819050919050565b610ed281610e5f565b8114610edd57600080fd5b50565b610ee981610e79565b8114610ef457600080fd5b50565b610f0081610e97565b8114610f0b57600080fd5b50565b610f1781610ebf565b8114610f2257600080fd5b5056fea36474726f6e5820faa8980d9dbae7f4fe4e897d467e041a27cd61736e8af0109353842f451651c26c6578706572696d656e74616cf564736f6c634300050a003f",
  "source": "// SPDX-License-Identifier: GPL-3.0-or-later\n\npragma solidity >=0.5.0;\npragma experimental ABIEncoderV2;\n\nimport '../utils/FixedPoint.sol';\n\ncontract FixedPointTest {\n    function encode(uint112 x) external pure returns (FixedPoint.uq112x112 memory) {\n        return FixedPoint.encode(x);\n    }\n\n    function encode144(uint144 x) external pure returns (FixedPoint.uq144x112 memory) {\n        return FixedPoint.encode144(x);\n    }\n\n    // divide a UQ112x112 by a uint112, returning a UQ112x112\n    function div(FixedPoint.uq112x112 calldata self, uint112 y) external pure returns (FixedPoint.uq112x112 memory) {\n        return FixedPoint.div(self, y);\n    }\n\n    function fraction(uint112 numerator, uint112 denominator) external pure returns (FixedPoint.uq112x112 memory) {\n        return FixedPoint.fraction(numerator, denominator);\n    }\n\n    // multiply a UQ112x112 by a uint, returning a UQ144x112\n    function mul(FixedPoint.uq112x112 calldata self, uint256 y) external pure returns (FixedPoint.uq144x112 memory) {\n        return FixedPoint.mul(self, y);\n    }\n\n    // decode a UQ112x112 in a uint container into a uint by truncating after the radix point\n    function decode(FixedPoint.uq112x112 calldata self) external pure returns (uint112) {\n        return FixedPoint.decode(self);\n    }\n\n    function decode144(FixedPoint.uq144x112 calldata self) external pure returns (uint144) {\n        return FixedPoint.decode144(self);\n    }\n\n    function reciprocal(FixedPoint.uq112x112 calldata self) external pure returns (FixedPoint.uq112x112 memory) {\n        return FixedPoint.reciprocal(self);\n    }\n\n    function sqrt(FixedPoint.uq112x112 calldata self) external pure returns (FixedPoint.uq112x112 memory) {\n        return FixedPoint.sqrt(self);\n    }\n}\n",
  "sourcePath": "/Users/eugenyaroslavov/Sources/pancake-farm/contracts/lib/test/FixedPointTest.sol",
  "compiler": {
    "name": "solc",
    "version": "0.5.10+commit.a1d534ef.Emscripten.clang"
  },
  "schemaVersion": "2.0.1",
  "updatedAt": "2020-10-20T16:59:21.524Z"
}