{
  "contractName": "PairNamerTest",
  "abi": [
    {
      "constant": true,
      "inputs": [
        {
          "name": "token0",
          "type": "address"
        },
        {
          "name": "token1",
          "type": "address"
        },
        {
          "name": "prefix",
          "type": "string"
        },
        {
          "name": "suffix",
          "type": "string"
        }
      ],
      "name": "pairName",
      "outputs": [
        {
          "name": "",
          "type": "string"
        }
      ],
      "payable": false,
      "stateMutability": "view",
      "type": "function"
    },
    {
      "constant": true,
      "inputs": [
        {
          "name": "token0",
          "type": "address"
        },
        {
          "name": "token1",
          "type": "address"
        },
        {
          "name": "suffix",
          "type": "string"
        }
      ],
      "name": "pairSymbol",
      "outputs": [
        {
          "name": "",
          "type": "string"
        }
      ],
      "payable": false,
      "stateMutability": "view",
      "type": "function"
    }
  ],
  "bytecode": "0x608060405234801561001057600080fd5b50d3801561001d57600080fd5b50d2801561002a57600080fd5b506110058061003a6000396000f3fe608060405234801561001057600080fd5b50d3801561001d57600080fd5b50d2801561002a57600080fd5b506004361061006d576000357c0100000000000000000000000000000000000000000000000000000000900480634c75e91814610072578063e9f52d23146101a4575b600080fd5b6101296004803603606081101561008857600080fd5b81019080803573ffffffffffffffffffffffffffffffffffffffff169060200190929190803573ffffffffffffffffffffffffffffffffffffffff169060200190929190803590602001906401000000008111156100e557600080fd5b8201836020820111156100f757600080fd5b8035906020019184600183028401116401000000008311171561011957600080fd5b909192939192939050505061032b565b6040518080602001828103825283818151815260200191508051906020019080838360005b8381101561016957808201518184015260208101905061014e565b50505050905090810190601f1680156101965780820380516001836020036101000a031916815260200191505b509250505060405180910390f35b6102b0600480360360808110156101ba57600080fd5b81019080803573ffffffffffffffffffffffffffffffffffffffff169060200190929190803573ffffffffffffffffffffffffffffffffffffffff1690602001909291908035906020019064010000000081111561021757600080fd5b82018360208201111561022957600080fd5b8035906020019184600183028401116401000000008311171561024b57600080fd5b90919293919293908035906020019064010000000081111561026c57600080fd5b82018360208201111561027e57600080fd5b803590602001918460018302840111640100000000831117156102a057600080fd5b9091929391929390505050610386565b6040518080602001828103825283818151815260200191508051906020019080838360005b838110156102f05780820151818401526020810190506102d5565b50505050905090810190601f16801561031d5780820380516001836020036101000a031916815260200191505b509250505060405180910390f35b606061037c858585858080601f016020809104026020016040519081016040528093929190818152602001838380828437600081840152601f19601f82011690508083019250505050505050610428565b9050949350505050565b606061041c878787878080601f016020809104026020016040519081016040528093929190818152602001838380828437600081840152601f19601f8201169050808301925050505050505086868080601f016020809104026020016040519081016040528093929190818152602001838380828437600081840152601f19601f82011690508083019250505050505050610664565b90509695505050505050565b60606040518060400160405280600481526020017ff09fa684000000000000000000000000000000000000000000000000000000008152506104698561086c565b6040518060400160405280600181526020017f3a000000000000000000000000000000000000000000000000000000000000008152506104a88661086c565b856040516020018086805190602001908083835b602083106104df57805182526020820191506020810190506020830392506104bc565b6001836020036101000a03801982511681845116808217855250505050505090500185805190602001908083835b60208310610530578051825260208201915060208101905060208303925061050d565b6001836020036101000a03801982511681845116808217855250505050505090500184805190602001908083835b60208310610581578051825260208201915060208101905060208303925061055e565b6001836020036101000a03801982511681845116808217855250505050505090500183805190602001908083835b602083106105d257805182526020820191506020810190506020830392506105af565b6001836020036101000a03801982511681845116808217855250505050505090500182805190602001908083835b602083106106235780518252602082019150602081019050602083039250610600565b6001836020036101000a0380198251168184511680821785525050505050509050019550505050505060405160208183030381529060405290509392505050565b606082610670866108c3565b6040518060400160405280600181526020017f3a000000000000000000000000000000000000000000000000000000000000008152506106af876108c3565b856040516020018086805190602001908083835b602083106106e657805182526020820191506020810190506020830392506106c3565b6001836020036101000a03801982511681845116808217855250505050505090500185805190602001908083835b602083106107375780518252602082019150602081019050602083039250610714565b6001836020036101000a03801982511681845116808217855250505050505090500184805190602001908083835b602083106107885780518252602082019150602081019050602083039250610765565b6001836020036101000a03801982511681845116808217855250505050505090500183805190602001908083835b602083106107d957805182526020820191506020810190506020830392506107b6565b6001836020036101000a03801982511681845116808217855250505050505090500182805190602001908083835b6020831061082a5780518252602082019150602081019050602083039250610807565b6001836020036101000a038019825116818451168082178552505050505050905001955050505050506040516020818303038152906040529050949350505050565b60608061089c836395d89b417c01000000000000000000000000000000000000000000000000000000000261091a565b90506000815114156108b9576108b183610b41565b9150506108be565b809150505b919050565b6060806108f3836306fdde037c01000000000000000000000000000000000000000000000000000000000261091a565b90506000815114156109105761090883610b55565b915050610915565b809150505b919050565b6060600060608473ffffffffffffffffffffffffffffffffffffffff1684604051602401604051602081830303815290604052907bffffffffffffffffffffffffffffffffffffffffffffffffffffffff19166020820180517bffffffffffffffffffffffffffffffffffffffffffffffffffffffff83818316178352505050506040518082805190602001908083835b602083106109ce57805182526020820191506020810190506020830392506109ab565b6001836020036101000a038019825116818451168082178552505050505050905001915050600060405180830381855afa9150503d8060008114610a2e576040519150601f19603f3d011682016040523d82523d6000602084013e610a33565b606091505b5091509150811580610a46575060008151145b15610a64576040518060200160405280600081525092505050610b3b565b602081511415610aab576000818060200190516020811015610a8557600080fd5b81019080805190602001909291905050509050610aa181610b69565b9350505050610b3b565b604081511115610b2657808060200190516020811015610aca57600080fd5b810190808051640100000000811115610ae257600080fd5b82810190506020810184811115610af857600080fd5b8151856001820283011164010000000082111715610b1557600080fd5b505092919050505092505050610b3b565b60405180602001604052806000815250925050505b92915050565b6060610b4e826006610d7a565b9050919050565b6060610b62826028610d7a565b9050919050565b60608060206040519080825280601f01601f191660200182016040528015610ba05781602001600182028038833980820191505090505b509050600080905060008090505b6020811015610c89576000858260208110610bc557fe5b1a7f010000000000000000000000000000000000000000000000000000000000000002905060007f010000000000000000000000000000000000000000000000000000000000000002817effffffffffffffffffffffffffffffffffffffffffffffffffffffffffffff191614610c7b5780848481518110610c4357fe5b60200101907effffffffffffffffffffffffffffffffffffffffffffffffffffffffffffff1916908160001a90535082806001019350505b508080600101915050610bae565b506060816040519080825280601f01601f191660200182016040528015610cbf5781602001600182028038833980820191505090505b50905060008090505b82811015610d6e57838181518110610cdc57fe5b60200101517f010000000000000000000000000000000000000000000000000000000000000090047f010000000000000000000000000000000000000000000000000000000000000002828281518110610d3257fe5b60200101907effffffffffffffffffffffffffffffffffffffffffffffffffffffffffffff1916908160001a9053508080600101915050610cc8565b50809350505050919050565b6060600060028381610d8857fe5b06148015610d965750600082115b8015610da3575060288211155b610e15576040517f08c379a000000000000000000000000000000000000000000000000000000000815260040180806020018281038252601e8152602001807f41646472657373537472696e675574696c3a20494e56414c49445f4c454e000081525060200191505060405180910390fd5b6060826040519080825280601f01601f191660200182016040528015610e4a5781602001600182028038833980820191505090505b50905060008473ffffffffffffffffffffffffffffffffffffffff16905060008090505b60028581610e7857fe5b04811015610f5c5760008160130360080283908060020a82049150509050600060048260ff16908060020a82049150509050600060048260ff169060020a0283039050610ec482610f68565b868560020281518110610ed357fe5b60200101907effffffffffffffffffffffffffffffffffffffffffffffffffffffffffffff1916908160001a905350610f0b81610f68565b866001866002020181518110610f1d57fe5b60200101907effffffffffffffffffffffffffffffffffffffffffffffffffffffffffffff1916908160001a9053505050508080600101915050610e6e565b50819250505092915050565b6000600a8260ff161015610fa357603082017f0100000000000000000000000000000000000000000000000000000000000000029050610fcc565b603782017f01000000000000000000000000000000000000000000000000000000000000000290505b91905056fea26474726f6e582077d55d5a4c1f835b929ad3500b3075fc1e53e843eb74e39d86426a7e2c0e03ef64736f6c634300050a0031",
  "source": "// SPDX-License-Identifier: GPL-3.0-or-later\n\npragma solidity >=0.5.0;\n\nimport '../utils/PairNamer.sol';\n\ncontract PairNamerTest {\n    function pairName(\n        address token0,\n        address token1,\n        string calldata prefix,\n        string calldata suffix\n    ) external view returns (string memory) {\n        return PairNamer.pairName(token0, token1, prefix, suffix);\n    }\n\n    function pairSymbol(\n        address token0,\n        address token1,\n        string calldata suffix\n    ) external view returns (string memory) {\n        return PairNamer.pairSymbol(token0, token1, suffix);\n    }\n}\n\n// we do not test with non compliant BEP20 implementations because that's handled by token namer\ncontract PairNamerTestFakeToken {\n    string public name;\n    string public symbol;\n\n    constructor(string memory name_, string memory symbol_) public {\n        name = name_;\n        symbol = symbol_;\n    }\n}\n",
  "sourcePath": "/Users/eugenyaroslavov/Sources/pancake-farm/contracts/lib/test/PairNamerTest.sol",
  "compiler": {
    "name": "solc",
    "version": "0.5.10+commit.a1d534ef.Emscripten.clang"
  },
  "schemaVersion": "2.0.1",
  "updatedAt": "2020-10-20T16:59:21.524Z"
}