{
  "contractName": "SafeBEP20NamerTest",
  "abi": [
    {
      "constant": true,
      "inputs": [
        {
          "name": "token",
          "type": "address"
        }
      ],
      "name": "tokenSymbol",
      "outputs": [
        {
          "name": "",
          "type": "string"
        }
      ],
      "payable": false,
      "stateMutability": "view",
      "type": "function"
    },
    {
      "constant": true,
      "inputs": [
        {
          "name": "token",
          "type": "address"
        }
      ],
      "name": "tokenName",
      "outputs": [
        {
          "name": "",
          "type": "string"
        }
      ],
      "payable": false,
      "stateMutability": "view",
      "type": "function"
    }
  ],
  "bytecode": "0x608060405234801561001057600080fd5b50d3801561001d57600080fd5b50d2801561002a57600080fd5b506109a98061003a6000396000f3fe608060405234801561001057600080fd5b50d3801561001d57600080fd5b50d2801561002a57600080fd5b506004361061006d576000357c010000000000000000000000000000000000000000000000000000000090048063033b9b4f14610072578063e54f75221461012f575b600080fd5b6100b46004803603602081101561008857600080fd5b81019080803573ffffffffffffffffffffffffffffffffffffffff1690602001909291905050506101ec565b6040518080602001828103825283818151815260200191508051906020019080838360005b838110156100f45780820151818401526020810190506100d9565b50505050905090810190601f1680156101215780820380516001836020036101000a031916815260200191505b509250505060405180910390f35b6101716004803603602081101561014557600080fd5b81019080803573ffffffffffffffffffffffffffffffffffffffff1690602001909291905050506101fe565b6040518080602001828103825283818151815260200191508051906020019080838360005b838110156101b1578082015181840152602081019050610196565b50505050905090810190601f1680156101de5780820380516001836020036101000a031916815260200191505b509250505060405180910390f35b60606101f782610210565b9050919050565b606061020982610267565b9050919050565b606080610240836395d89b417c0100000000000000000000000000000000000000000000000000000000026102be565b905060008151141561025d57610255836104e5565b915050610262565b809150505b919050565b606080610297836306fdde037c0100000000000000000000000000000000000000000000000000000000026102be565b90506000815114156102b4576102ac836104f9565b9150506102b9565b809150505b919050565b6060600060608473ffffffffffffffffffffffffffffffffffffffff1684604051602401604051602081830303815290604052907bffffffffffffffffffffffffffffffffffffffffffffffffffffffff19166020820180517bffffffffffffffffffffffffffffffffffffffffffffffffffffffff83818316178352505050506040518082805190602001908083835b60208310610372578051825260208201915060208101905060208303925061034f565b6001836020036101000a038019825116818451168082178552505050505050905001915050600060405180830381855afa9150503d80600081146103d2576040519150601f19603f3d011682016040523d82523d6000602084013e6103d7565b606091505b50915091508115806103ea575060008151145b156104085760405180602001604052806000815250925050506104df565b60208151141561044f57600081806020019051602081101561042957600080fd5b810190808051906020019092919050505090506104458161050d565b93505050506104df565b6040815111156104ca5780806020019051602081101561046e57600080fd5b81019080805164010000000081111561048657600080fd5b8281019050602081018481111561049c57600080fd5b81518560018202830111640100000000821117156104b957600080fd5b5050929190505050925050506104df565b60405180602001604052806000815250925050505b92915050565b60606104f282600661071e565b9050919050565b606061050682602861071e565b9050919050565b60608060206040519080825280601f01601f1916602001820160405280156105445781602001600182028038833980820191505090505b509050600080905060008090505b602081101561062d57600085826020811061056957fe5b1a7f010000000000000000000000000000000000000000000000000000000000000002905060007f010000000000000000000000000000000000000000000000000000000000000002817effffffffffffffffffffffffffffffffffffffffffffffffffffffffffffff19161461061f57808484815181106105e757fe5b60200101907effffffffffffffffffffffffffffffffffffffffffffffffffffffffffffff1916908160001a90535082806001019350505b508080600101915050610552565b506060816040519080825280601f01601f1916602001820160405280156106635781602001600182028038833980820191505090505b50905060008090505b828110156107125783818151811061068057fe5b60200101517f010000000000000000000000000000000000000000000000000000000000000090047f0100000000000000000000000000000000000000000000000000000000000000028282815181106106d657fe5b60200101907effffffffffffffffffffffffffffffffffffffffffffffffffffffffffffff1916908160001a905350808060010191505061066c565b50809350505050919050565b606060006002838161072c57fe5b0614801561073a5750600082115b8015610747575060288211155b6107b9576040517f08c379a000000000000000000000000000000000000000000000000000000000815260040180806020018281038252601e8152602001807f41646472657373537472696e675574696c3a20494e56414c49445f4c454e000081525060200191505060405180910390fd5b6060826040519080825280601f01601f1916602001820160405280156107ee5781602001600182028038833980820191505090505b50905060008473ffffffffffffffffffffffffffffffffffffffff16905060008090505b6002858161081c57fe5b048110156109005760008160130360080283908060020a82049150509050600060048260ff16908060020a82049150509050600060048260ff169060020a02830390506108688261090c565b86856002028151811061087757fe5b60200101907effffffffffffffffffffffffffffffffffffffffffffffffffffffffffffff1916908160001a9053506108af8161090c565b8660018660020201815181106108c157fe5b60200101907effffffffffffffffffffffffffffffffffffffffffffffffffffffffffffff1916908160001a9053505050508080600101915050610812565b50819250505092915050565b6000600a8260ff16101561094757603082017f0100000000000000000000000000000000000000000000000000000000000000029050610970565b603782017f01000000000000000000000000000000000000000000000000000000000000000290505b91905056fea26474726f6e58203e2d048869c77c6671b9ceab686110574adff136ea59755a6442da7d73ea5bb764736f6c634300050a0031",
  "source": "// SPDX-License-Identifier: GPL-3.0-or-later\n\npragma solidity >=0.5.0;\n\nimport '../utils/SafeBEP20Namer.sol';\n\n// used for testing the logic of token naming\ncontract SafeBEP20NamerTest {\n    function tokenSymbol(address token) public view returns (string memory) {\n        return SafeBEP20Namer.tokenSymbol(token);\n    }\n\n    function tokenName(address token) public view returns (string memory) {\n        return SafeBEP20Namer.tokenName(token);\n    }\n}\n\n// does not implement name or symbol\ncontract NamerTestFakeOptionalBEP20 {\n\n}\n\n// complies with BEP20 and returns strings\ncontract NamerTestFakeCompliantBEP20 {\n    string public name;\n    string public symbol;\n\n    constructor(string memory name_, string memory symbol_) public {\n        name = name_;\n        symbol = symbol_;\n    }\n}\n\n// implements name and symbol but returns bytes32\ncontract NamerTestFakeNoncompliantBEP20 {\n    bytes32 public name;\n    bytes32 public symbol;\n\n    constructor(bytes32 name_, bytes32 symbol_) public {\n        name = name_;\n        symbol = symbol_;\n    }\n}\n",
  "sourcePath": "/Users/eugenyaroslavov/Sources/pancake-farm/contracts/lib/test/SafeBEP20NamerTest.sol",
  "compiler": {
    "name": "solc",
    "version": "0.5.10+commit.a1d534ef.Emscripten.clang"
  },
  "schemaVersion": "2.0.1",
  "updatedAt": "2020-10-20T16:59:21.525Z"
}