{
  "contractName": "SafeMathTest",
  "abi": [
    {
      "constant": true,
      "inputs": [
        {
          "name": "num",
          "type": "uint256"
        }
      ],
      "name": "sqrt",
      "outputs": [
        {
          "name": "",
          "type": "uint256"
        }
      ],
      "payable": false,
      "stateMutability": "pure",
      "type": "function"
    }
  ],
  "bytecode": "0x608060405234801561001057600080fd5b50d3801561001d57600080fd5b50d2801561002a57600080fd5b506101518061003a6000396000f3fe608060405234801561001057600080fd5b50d3801561001d57600080fd5b50d2801561002a57600080fd5b5060043610610062576000357c010000000000000000000000000000000000000000000000000000000090048063677342ce14610067575b600080fd5b6100936004803603602081101561007d57600080fd5b81019080803590602001909291905050506100a9565b6040518082815260200191505060405180910390f35b60006100b4826100bb565b9050919050565b6000600382111561010a5781905060006001600284816100d757fe5b040190505b81811015610104578091506002818285816100f357fe5b0401816100fc57fe5b0490506100dc565b50610118565b6000821461011757600190505b5b91905056fea26474726f6e58201c65efc9d695987e8363dcacad2e736836a8a1150e6ca139add5b9f827f544b864736f6c634300050a0031",
  "source": "// SPDX-License-Identifier: GPL-3.0-or-later\n\npragma solidity >=0.4.0;\n\nimport '../math/SafeMath.sol';\n\n// used for testing the logic of token naming\ncontract SafeMathTest {\n    function sqrt(uint256 num) public pure returns (uint256) {\n        return SafeMath.sqrt(num);\n    }\n}\n",
  "sourcePath": "/Users/eugenyaroslavov/Sources/pancake-farm/contracts/lib/test/SafeMathTest.sol",
  "compiler": {
    "name": "solc",
    "version": "0.5.10+commit.a1d534ef.Emscripten.clang"
  },
  "schemaVersion": "2.0.1",
  "updatedAt": "2020-10-20T16:59:21.525Z"
}