{
  "contractName": "SousChef",
  "abi": [
    {
      "constant": true,
      "inputs": [
        {
          "name": "",
          "type": "address"
        }
      ],
      "name": "userInfo",
      "outputs": [
        {
          "name": "amount",
          "type": "uint256"
        },
        {
          "name": "rewardDebt",
          "type": "uint256"
        },
        {
          "name": "rewardPending",
          "type": "uint256"
        }
      ],
      "payable": false,
      "stateMutability": "view",
      "type": "function"
    },
    {
      "constant": true,
      "inputs": [],
      "name": "bonusEndBlock",
      "outputs": [
        {
          "name": "",
          "type": "uint256"
        }
      ],
      "payable": false,
      "stateMutability": "view",
      "type": "function"
    },
    {
      "constant": true,
      "inputs": [],
      "name": "startBlock",
      "outputs": [
        {
          "name": "",
          "type": "uint256"
        }
      ],
      "payable": false,
      "stateMutability": "view",
      "type": "function"
    },
    {
      "constant": true,
      "inputs": [],
      "name": "poolInfo",
      "outputs": [
        {
          "name": "lastRewardBlock",
          "type": "uint256"
        },
        {
          "name": "accRewardPerShare",
          "type": "uint256"
        }
      ],
      "payable": false,
      "stateMutability": "view",
      "type": "function"
    },
    {
      "constant": true,
      "inputs": [],
      "name": "syrup",
      "outputs": [
        {
          "name": "",
          "type": "address"
        }
      ],
      "payable": false,
      "stateMutability": "view",
      "type": "function"
    },
    {
      "constant": true,
      "inputs": [],
      "name": "rewardPerBlock",
      "outputs": [
        {
          "name": "",
          "type": "uint256"
        }
      ],
      "payable": false,
      "stateMutability": "view",
      "type": "function"
    },
    {
      "constant": true,
      "inputs": [
        {
          "name": "",
          "type": "uint256"
        }
      ],
      "name": "addressList",
      "outputs": [
        {
          "name": "",
          "type": "address"
        }
      ],
      "payable": false,
      "stateMutability": "view",
      "type": "function"
    },
    {
      "inputs": [
        {
          "name": "_syrup",
          "type": "address"
        },
        {
          "name": "_rewardPerBlock",
          "type": "uint256"
        },
        {
          "name": "_startBlock",
          "type": "uint256"
        },
        {
          "name": "_endBlock",
          "type": "uint256"
        }
      ],
      "payable": false,
      "stateMutability": "nonpayable",
      "type": "constructor"
    },
    {
      "anonymous": false,
      "inputs": [
        {
          "indexed": true,
          "name": "user",
          "type": "address"
        },
        {
          "indexed": false,
          "name": "amount",
          "type": "uint256"
        }
      ],
      "name": "Deposit",
      "type": "event"
    },
    {
      "anonymous": false,
      "inputs": [
        {
          "indexed": true,
          "name": "user",
          "type": "address"
        },
        {
          "indexed": false,
          "name": "amount",
          "type": "uint256"
        }
      ],
      "name": "Withdraw",
      "type": "event"
    },
    {
      "anonymous": false,
      "inputs": [
        {
          "indexed": true,
          "name": "user",
          "type": "address"
        },
        {
          "indexed": false,
          "name": "amount",
          "type": "uint256"
        }
      ],
      "name": "EmergencyWithdraw",
      "type": "event"
    },
    {
      "constant": true,
      "inputs": [],
      "name": "addressLength",
      "outputs": [
        {
          "name": "",
          "type": "uint256"
        }
      ],
      "payable": false,
      "stateMutability": "view",
      "type": "function"
    },
    {
      "constant": true,
      "inputs": [
        {
          "name": "_user",
          "type": "address"
        }
      ],
      "name": "pendingReward",
      "outputs": [
        {
          "name": "",
          "type": "uint256"
        }
      ],
      "payable": false,
      "stateMutability": "view",
      "type": "function"
    },
    {
      "constant": false,
      "inputs": [],
      "name": "updatePool",
      "outputs": [],
      "payable": false,
      "stateMutability": "nonpayable",
      "type": "function"
    },
    {
      "constant": false,
      "inputs": [
        {
          "name": "_amount",
          "type": "uint256"
        }
      ],
      "name": "deposit",
      "outputs": [],
      "payable": false,
      "stateMutability": "nonpayable",
      "type": "function"
    },
    {
      "constant": false,
      "inputs": [
        {
          "name": "_amount",
          "type": "uint256"
        }
      ],
      "name": "withdraw",
      "outputs": [],
      "payable": false,
      "stateMutability": "nonpayable",
      "type": "function"
    },
    {
      "constant": false,
      "inputs": [],
      "name": "emergencyWithdraw",
      "outputs": [],
      "payable": false,
      "stateMutability": "nonpayable",
      "type": "function"
    }
  ],
  "bytecode": "0x608060405234801561001057600080fd5b50d3801561001d57600080fd5b50d2801561002a57600080fd5b5060405161196b38038061196b8339818101604052608081101561004d57600080fd5b8101908080519060200190929190805190602001909291908051906020019092919080519060200190929190505050836000806101000a81548173ffffffffffffffffffffffffffffffffffffffff021916908373ffffffffffffffffffffffffffffffffffffffff1602179055508260018190555081600681905550806007819055506040518060400160405280600654815260200160008152506002600082015181600001556020820151816001015590505050505050611856806101156000396000f3fe608060405234801561001057600080fd5b50d3801561001d57600080fd5b50d2801561002a57600080fd5b5060043610610106576000357c0100000000000000000000000000000000000000000000000000000000900480638ae39cac116100c3578063db2e21bc1161009d578063db2e21bc14610304578063dc8818881461030e578063e3161ddd1461032c578063f40f0f521461033657610106565b80638ae39cac1461024a578063b6b55f2514610268578063b810fb431461029657610106565b80631959a0021461010b5780631aed6553146101715780632e1a7d4d1461018f57806348cd4cb1146101bd5780635a2f3d09146101db57806386a952c414610200575b600080fd5b61014d6004803603602081101561012157600080fd5b81019080803573ffffffffffffffffffffffffffffffffffffffff16906020019092919050505061038e565b60405180848152602001838152602001828152602001935050505060405180910390f35b6101796103b8565b6040518082815260200191505060405180910390f35b6101bb600480360360208110156101a557600080fd5b81019080803590602001909291905050506103be565b005b6101c5610658565b6040518082815260200191505060405180910390f35b6101e361065e565b604051808381526020018281526020019250505060405180910390f35b610208610670565b604051808273ffffffffffffffffffffffffffffffffffffffff1673ffffffffffffffffffffffffffffffffffffffff16815260200191505060405180910390f35b610252610695565b6040518082815260200191505060405180910390f35b6102946004803603602081101561027e57600080fd5b810190808035906020019092919050505061069b565b005b6102c2600480360360208110156102ac57600080fd5b8101908080359060200190929190505050610951565b604051808273ffffffffffffffffffffffffffffffffffffffff1673ffffffffffffffffffffffffffffffffffffffff16815260200191505060405180910390f35b61030c61098d565b005b610316610a93565b6040518082815260200191505060405180910390f35b610334610aa0565b005b6103786004803603602081101561034c57600080fd5b81019080803573ffffffffffffffffffffffffffffffffffffffff169060200190929190505050610c49565b6040518082815260200191505060405180910390f35b60046020528060005260406000206000915090508060000154908060010154908060020154905083565b60075481565b60008111610434576040517f08c379a00000000000000000000000000000000000000000000000000000000081526004018080602001828103825260088152602001807f616d6f756e74203000000000000000000000000000000000000000000000000081525060200191505060405180910390fd5b6000600460003373ffffffffffffffffffffffffffffffffffffffff1673ffffffffffffffffffffffffffffffffffffffff168152602001908152602001600020905081816000015410156104f1576040517f08c379a00000000000000000000000000000000000000000000000000000000081526004018080602001828103825260148152602001807f77697468647261773a206e6f7420656e6f75676800000000000000000000000081525060200191505060405180910390fd5b6104f9610aa0565b61054533836000809054906101000a900473ffffffffffffffffffffffffffffffffffffffff1673ffffffffffffffffffffffffffffffffffffffff16610e7f9092919063ffffffff16565b6105a48160020154610596836001015461058864e8d4a5100061057a6002600101548860000154610f6c90919063ffffffff16565b610ff290919063ffffffff16565b61103c90919063ffffffff16565b61108690919063ffffffff16565b81600201819055506105c382826000015461103c90919063ffffffff16565b81600001819055506105fe64e8d4a510006105f06002600101548460000154610f6c90919063ffffffff16565b610ff290919063ffffffff16565b81600101819055503373ffffffffffffffffffffffffffffffffffffffff167f884edad9ce6fa2440d8a54cc123490eb96d2768479d49ff9c7366125a9424364836040518082815260200191505060405180910390a25050565b60065481565b60028060000154908060010154905082565b6000809054906101000a900473ffffffffffffffffffffffffffffffffffffffff1681565b60015481565b60008111610711576040517f08c379a00000000000000000000000000000000000000000000000000000000081526004018080602001828103825260088152602001807f616d6f756e74203000000000000000000000000000000000000000000000000081525060200191505060405180910390fd5b6000600460003373ffffffffffffffffffffffffffffffffffffffff1673ffffffffffffffffffffffffffffffffffffffff168152602001908152602001600020905061075c610aa0565b6107aa3330846000809054906101000a900473ffffffffffffffffffffffffffffffffffffffff1673ffffffffffffffffffffffffffffffffffffffff1661110e909392919063ffffffff16565b600081600001541480156107c2575060008160020154145b80156107d2575060008160010154145b1561083e5760053390806001815401808255809150509060018203906000526020600020016000909192909190916101000a81548173ffffffffffffffffffffffffffffffffffffffff021916908373ffffffffffffffffffffffffffffffffffffffff160217905550505b61089d816002015461088f836001015461088164e8d4a510006108736002600101548860000154610f6c90919063ffffffff16565b610ff290919063ffffffff16565b61103c90919063ffffffff16565b61108690919063ffffffff16565b81600201819055506108bc82826000015461108690919063ffffffff16565b81600001819055506108f764e8d4a510006108e96002600101548460000154610f6c90919063ffffffff16565b610ff290919063ffffffff16565b81600101819055503373ffffffffffffffffffffffffffffffffffffffff167fe1fffcc4923d04b559f4d29a8bfc6cda04eb5b0d3c460751c2402c5c5cc9109c836040518082815260200191505060405180910390a25050565b6005818154811061095e57fe5b906000526020600020016000915054906101000a900473ffffffffffffffffffffffffffffffffffffffff1681565b6000600460003373ffffffffffffffffffffffffffffffffffffffff1673ffffffffffffffffffffffffffffffffffffffff1681526020019081526020016000209050610a203382600001546000809054906101000a900473ffffffffffffffffffffffffffffffffffffffff1673ffffffffffffffffffffffffffffffffffffffff16610e7f9092919063ffffffff16565b3373ffffffffffffffffffffffffffffffffffffffff167f5fafa99d0643513820be26656b45130b01e1c03062e1266bf36f88cbd3bd969582600001546040518082815260200191505060405180910390a260008160000181905550600081600101819055506000816002018190555050565b6000600580549050905090565b6002600001544311610ab157610c47565b60008060009054906101000a900473ffffffffffffffffffffffffffffffffffffffff1673ffffffffffffffffffffffffffffffffffffffff166370a08231306040518263ffffffff167c0100000000000000000000000000000000000000000000000000000000028152600401808273ffffffffffffffffffffffffffffffffffffffff1673ffffffffffffffffffffffffffffffffffffffff16815260200191505060206040518083038186803b158015610b6d57600080fd5b505afa158015610b81573d6000803e3d6000fd5b505050506040513d6020811015610b9757600080fd5b810190808051906020019092919050505090506000811415610bc3574360026000018190555050610c47565b6000610bd460026000015443611230565b90506000610bed60015483610f6c90919063ffffffff16565b9050610c30610c1c84610c0e64e8d4a5100085610f6c90919063ffffffff16565b610ff290919063ffffffff16565b60026001015461108690919063ffffffff16565b600260010181905550436002600001819055505050505b565b600080600290506000600460008573ffffffffffffffffffffffffffffffffffffffff1673ffffffffffffffffffffffffffffffffffffffff168152602001908152602001600020905060008260010154905060008060009054906101000a900473ffffffffffffffffffffffffffffffffffffffff1673ffffffffffffffffffffffffffffffffffffffff166370a08231306040518263ffffffff167c0100000000000000000000000000000000000000000000000000000000028152600401808273ffffffffffffffffffffffffffffffffffffffff1673ffffffffffffffffffffffffffffffffffffffff16815260200191505060206040518083038186803b158015610d5857600080fd5b505afa158015610d6c573d6000803e3d6000fd5b505050506040513d6020811015610d8257600080fd5b81019080805190602001909291905050509050836000015443118015610da9575060008114155b15610e1a576000610dbe856000015443611230565b90506000610dd760015483610f6c90919063ffffffff16565b9050610e15610e0684610df864e8d4a5100085610f6c90919063ffffffff16565b610ff290919063ffffffff16565b8561108690919063ffffffff16565b935050505b610e748360020154610e668560010154610e5864e8d4a51000610e4a888a60000154610f6c90919063ffffffff16565b610ff290919063ffffffff16565b61103c90919063ffffffff16565b61108690919063ffffffff16565b945050505050919050565b610f67838473ffffffffffffffffffffffffffffffffffffffff1663a9059cbb90507c0100000000000000000000000000000000000000000000000000000000028484604051602401808373ffffffffffffffffffffffffffffffffffffffff1673ffffffffffffffffffffffffffffffffffffffff16815260200182815260200192505050604051602081830303815290604052907bffffffffffffffffffffffffffffffffffffffffffffffffffffffff19166020820180517bffffffffffffffffffffffffffffffffffffffffffffffffffffffff8381831617835250505050611285565b505050565b600080831415610f7f5760009050610fec565b6000828402905082848281610f9057fe5b0414610fe7576040517f08c379a00000000000000000000000000000000000000000000000000000000081526004018080602001828103825260218152602001806118026021913960400191505060405180910390fd5b809150505b92915050565b600061103483836040518060400160405280601a81526020017f536166654d6174683a206469766973696f6e206279207a65726f000000000000815250611374565b905092915050565b600061107e83836040518060400160405280601e81526020017f536166654d6174683a207375627472616374696f6e206f766572666c6f77000081525061143a565b905092915050565b600080828401905083811015611104576040517f08c379a000000000000000000000000000000000000000000000000000000000815260040180806020018281038252601b8152602001807f536166654d6174683a206164646974696f6e206f766572666c6f77000000000081525060200191505060405180910390fd5b8091505092915050565b61122a848573ffffffffffffffffffffffffffffffffffffffff166323b872dd90507c010000000000000000000000000000000000000000000000000000000002858585604051602401808473ffffffffffffffffffffffffffffffffffffffff1673ffffffffffffffffffffffffffffffffffffffff1681526020018373ffffffffffffffffffffffffffffffffffffffff1673ffffffffffffffffffffffffffffffffffffffff1681526020018281526020019350505050604051602081830303815290604052907bffffffffffffffffffffffffffffffffffffffffffffffffffffffff19166020820180517bffffffffffffffffffffffffffffffffffffffffffffffffffffffff8381831617835250505050611285565b50505050565b600060075482116112555761124e838361103c90919063ffffffff16565b905061127f565b6007548310611267576000905061127f565b61127c8360075461103c90919063ffffffff16565b90505b92915050565b60606112e7826040518060400160405280602081526020017f5361666542455032303a206c6f772d6c6576656c2063616c6c206661696c65648152508573ffffffffffffffffffffffffffffffffffffffff166114fa9092919063ffffffff16565b905060008151111561136f5780806020019051602081101561130857600080fd5b810190808051906020019092919050505061136e576040517f08c379a000000000000000000000000000000000000000000000000000000000815260040180806020018281038252602a8152602001806117b2602a913960400191505060405180910390fd5b5b505050565b60008083118290611420576040517f08c379a00000000000000000000000000000000000000000000000000000000081526004018080602001828103825283818151815260200191508051906020019080838360005b838110156113e55780820151818401526020810190506113ca565b50505050905090810190601f1680156114125780820380516001836020036101000a031916815260200191505b509250505060405180910390fd5b50600083858161142c57fe5b049050809150509392505050565b60008383111582906114e7576040517f08c379a00000000000000000000000000000000000000000000000000000000081526004018080602001828103825283818151815260200191508051906020019080838360005b838110156114ac578082015181840152602081019050611491565b50505050905090810190601f1680156114d95780820380516001836020036101000a031916815260200191505b509250505060405180910390fd5b5060008385039050809150509392505050565b60606115098484600085611512565b90509392505050565b6060823073ffffffffffffffffffffffffffffffffffffffff16311015611584576040517f08c379a00000000000000000000000000000000000000000000000000000000081526004018080602001828103825260268152602001806117dc6026913960400191505060405180910390fd5b61158d856116d2565b6115ff576040517f08c379a000000000000000000000000000000000000000000000000000000000815260040180806020018281038252601d8152602001807f416464726573733a2063616c6c20746f206e6f6e2d636f6e747261637400000081525060200191505060405180910390fd5b600060608673ffffffffffffffffffffffffffffffffffffffff1685876040518082805190602001908083835b6020831061164f578051825260208201915060208101905060208303925061162c565b6001836020036101000a03801982511681845116808217855250505050505090500191505060006040518083038185875af1925050503d80600081146116b1576040519150601f19603f3d011682016040523d82523d6000602084013e6116b6565b606091505b50915091506116c68282866116e5565b92505050949350505050565b600080823b905060008111915050919050565b606083156116f5578290506117aa565b6000835111156117085782518084602001fd5b816040517f08c379a00000000000000000000000000000000000000000000000000000000081526004018080602001828103825283818151815260200191508051906020019080838360005b8381101561176f578082015181840152602081019050611754565b50505050905090810190601f16801561179c5780820380516001836020036101000a031916815260200191505b509250505060405180910390fd5b939250505056fe5361666542455032303a204245503230206f7065726174696f6e20646964206e6f742073756363656564416464726573733a20696e73756666696369656e742062616c616e636520666f722063616c6c536166654d6174683a206d756c7469706c69636174696f6e206f766572666c6f77a26474726f6e58202ffd37a24bdb9ce9f9eda20cd93c44e1e7c305822f7d232ed5e3d9ddfc45210d64736f6c634300050a0031",
  "source": "pragma solidity >=0.4.25 <0.7.0;\n\nimport './lib/math/SafeMath.sol';\nimport './lib/token/BEP20/IBEP20.sol';\nimport './lib/token/BEP20/SafeBEP20.sol';\n\n// import \"@nomiclabs/buidler/console.sol\";\n\n// SousChef is the chef of new tokens. He can make yummy food and he is a fair guy as well as MasterChef.\ncontract SousChef {\n    using SafeMath for uint256;\n    using SafeBEP20 for IBEP20;\n\n    // Info of each user.\n    struct UserInfo {\n        uint256 amount;   // How many SYRUP tokens the user has provided.\n        uint256 rewardDebt;  // Reward debt. See explanation below.\n        uint256 rewardPending;\n        //\n        // We do some fancy math here. Basically, any point in time, the amount of SYRUPs\n        // entitled to a user but is pending to be distributed is:\n        //\n        //   pending reward = (user.amount * pool.accRewardPerShare) - user.rewardDebt + user.rewardPending\n        //\n        // Whenever a user deposits or withdraws SYRUP tokens to a pool. Here's what happens:\n        //   1. The pool's `accRewardPerShare` (and `lastRewardBlock`) gets updated.\n        //   2. User receives the pending reward sent to his/her address.\n        //   3. User's `amount` gets updated.\n        //   3. User's `amount` gets updated.\n        //   4. User's `rewardDebt` gets updated.\n    }\n\n    // Info of Pool\n    struct PoolInfo {\n        uint256 lastRewardBlock;  // Last block number that Rewards distribution occurs.\n        uint256 accRewardPerShare; // Accumulated reward per share, times 1e12. See below.\n    }\n\n    // The SYRUP TOKEN!\n    IBEP20 public syrup;\n    // rewards created per block.\n    uint256 public rewardPerBlock;\n\n    // Info.\n    PoolInfo public poolInfo;\n    // Info of each user that stakes Syrup tokens.\n    mapping (address => UserInfo) public userInfo;\n\n    // addresses list\n    address[] public addressList;\n\n    // The block number when mining starts.\n    uint256 public startBlock;\n    // The block number when mining ends.\n    uint256 public bonusEndBlock;\n\n    event Deposit(address indexed user, uint256 amount);\n    event Withdraw(address indexed user, uint256 amount);\n    event EmergencyWithdraw(address indexed user, uint256 amount);\n\n    constructor(\n        IBEP20 _syrup,\n        uint256 _rewardPerBlock,\n        uint256 _startBlock,\n        uint256 _endBlock\n    ) public {\n        syrup = _syrup;\n        rewardPerBlock = _rewardPerBlock;\n        startBlock = _startBlock;\n        bonusEndBlock = _endBlock;\n\n        // staking pool\n        poolInfo = PoolInfo({\n            lastRewardBlock: startBlock,\n            accRewardPerShare: 0\n        });\n    }\n\n    function addressLength() external view returns (uint256) {\n        return addressList.length;\n    }\n\n    // Return reward multiplier over the given _from to _to block.\n    function getMultiplier(uint256 _from, uint256 _to) internal view returns (uint256) {\n        if (_to <= bonusEndBlock) {\n            return _to.sub(_from);\n        } else if (_from >= bonusEndBlock) {\n            return 0;\n        } else {\n            return bonusEndBlock.sub(_from);\n        }\n    }\n\n    // View function to see pending Tokens on frontend.\n    function pendingReward(address _user) external view returns (uint256) {\n        PoolInfo storage pool = poolInfo;\n        UserInfo storage user = userInfo[_user];\n        uint256 accRewardPerShare = pool.accRewardPerShare;\n        uint256 stakedSupply = syrup.balanceOf(address(this));\n        if (block.number > pool.lastRewardBlock && stakedSupply != 0) {\n            uint256 multiplier = getMultiplier(pool.lastRewardBlock, block.number);\n            uint256 tokenReward = multiplier.mul(rewardPerBlock);\n            accRewardPerShare = accRewardPerShare.add(tokenReward.mul(1e12).div(stakedSupply));\n        }\n        return user.amount.mul(accRewardPerShare).div(1e12).sub(user.rewardDebt).add(user.rewardPending);\n    }\n\n    // Update reward variables of the given pool to be up-to-date.\n    function updatePool() public {\n        if (block.number <= poolInfo.lastRewardBlock) {\n            return;\n        }\n        uint256 syrupSupply = syrup.balanceOf(address(this));\n        if (syrupSupply == 0) {\n            poolInfo.lastRewardBlock = block.number;\n            return;\n        }\n        uint256 multiplier = getMultiplier(poolInfo.lastRewardBlock, block.number);\n        uint256 tokenReward = multiplier.mul(rewardPerBlock);\n\n        poolInfo.accRewardPerShare = poolInfo.accRewardPerShare.add(tokenReward.mul(1e12).div(syrupSupply));\n        poolInfo.lastRewardBlock = block.number;\n    }\n\n\n    // Deposit Syrup tokens to SousChef for Reward allocation.\n    function deposit(uint256 _amount) public {\n        require (_amount > 0, 'amount 0');\n        UserInfo storage user = userInfo[msg.sender];\n        updatePool();\n        syrup.safeTransferFrom(address(msg.sender), address(this), _amount);\n        // The deposit behavior before farming will result in duplicate addresses, and thus we will manually remove them when airdropping.\n        if (user.amount == 0 && user.rewardPending == 0 && user.rewardDebt == 0) {\n            addressList.push(address(msg.sender));\n        }\n        user.rewardPending = user.amount.mul(poolInfo.accRewardPerShare).div(1e12).sub(user.rewardDebt).add(user.rewardPending);\n        user.amount = user.amount.add(_amount);\n        user.rewardDebt = user.amount.mul(poolInfo.accRewardPerShare).div(1e12);\n\n        emit Deposit(msg.sender, _amount);\n    }\n\n    // Withdraw Syrup tokens from SousChef.\n    function withdraw(uint256 _amount) public {\n        require (_amount > 0, 'amount 0');\n        UserInfo storage user = userInfo[msg.sender];\n        require(user.amount >= _amount, \"withdraw: not enough\");\n\n        updatePool();\n        syrup.safeTransfer(address(msg.sender), _amount);\n\n        user.rewardPending = user.amount.mul(poolInfo.accRewardPerShare).div(1e12).sub(user.rewardDebt).add(user.rewardPending);\n        user.amount = user.amount.sub(_amount);\n        user.rewardDebt = user.amount.mul(poolInfo.accRewardPerShare).div(1e12);\n\n        emit Withdraw(msg.sender, _amount);\n    }\n\n    // Withdraw without caring about rewards. EMERGENCY ONLY.\n    function emergencyWithdraw() public {\n        UserInfo storage user = userInfo[msg.sender];\n        syrup.safeTransfer(address(msg.sender), user.amount);\n        emit EmergencyWithdraw(msg.sender, user.amount);\n        user.amount = 0;\n        user.rewardDebt = 0;\n        user.rewardPending = 0;\n    }\n\n}\n",
  "sourcePath": "/Users/eugenyaroslavov/Sources/pancake-farm/contracts/SousChef.sol",
  "compiler": {
    "name": "solc",
    "version": "0.5.10+commit.a1d534ef.Emscripten.clang"
  },
  "schemaVersion": "2.0.1",
  "updatedAt": "2020-10-20T16:59:21.511Z"
}